:020000040000FA
:1000000068020020230300002B0300002D030000E2
:100010002F03000031030000330300000000000044
:100020000000000000000000000000003503000098
:100030003703000000000000390300003B0300000C
:100040003D0300003F0300004103000043030000A4
:100050004503000047030000490300004B03000074
:100060004D0300004F030000510300005303000044
:100070005503000057030000590300005B03000014
:100080005D0300005F0300006103000063030000E4
:100090006503000067030000690300006B030000B4
:1000A0006D0300006F030000710300007303000084
:1000B0007503000077030000150500007B030000B6
:1000C0007D0300007F030000810300008303000024
:1000D0008503000087030000890300008B030000F4
:1000E0008D0300008F03000000000000910300005A
:1000F000930300009503000097030000990300009C
:100100009B0300009D0300009F030000A10300006B
:100110000000000000000000A3030000A503000091
:10012000A7030000A9030000AB030000AD0300001B
:10013000AF030000B1030000B3030000B5030000EB
:1001400000000000000000000000000000000000AF
:10015000B7030000B9030000BB030000BD030000AB
:10016000000000000000000000000000000000008F
:10017000000000000000000000000000000000007F
:10018000000000000000000000000000000000006F
:10019000000000000000000000000000000000005F
:1001A000000000000000000000000000000000004F
:1001B000BF030000C1030000C3030000C50300002B
:1001C000C7030000C9030000CB030000CD030000FB
:1001D000CF030000D1030000D3030000D5030000CB
:1001E000D7030000D9030000DB030000000000007B
:1001F00000000000DD030000DF030000E103000059
:10020000E3030000E5030000000000000000000020
:10021000E7030000E9030000EB030000ED0300002A
:10022000EF030000F1030000F3030000F5030000FA
:10023000F7030000F9030000FB030000FD030000CA
:10024000FF03000001040000030400000504000097
:1002500007040000090400000B0400000D04000066
:100260000F040000110400001304000000F002F865
:1002700000F03CF80AA090E8000C82448344AAF104
:100280000107DA4501D100F031F8AFF2090EBAE802
:100290000F0013F0010F18BFFB1A43F001031847BA
:1002A0007803000098030000103A24BF78C878C192
:1002B000FAD8520724BF30C830C144BF04680C606C
:1002C000704700000023002400250026103A28BFB4
:1002D00078C1FBD8520728BF30C148BF0B607047B8
:1002E0001FB500F094F91FBD10B510BD00F059F90D
:1002F0001146FFF7F5FF00F033F900F077F903B48A
:10030000FFF7F2FF03BC00F07BF9000072B6704704
:1003100062B670474FF0E00080F31188704730BF3D
:1003200070473F4880473F480047FEE7FEE7FEE74B
:10033000FEE7FEE7FEE7FEE7FEE7FEE7FEE7FEE795
:10034000FEE7FEE7FEE7FEE7FEE7FEE7FEE7FEE785
:10035000FEE7FEE7FEE7FEE7FEE7FEE7FEE7FEE775
:10036000FEE7FEE7FEE7FEE7FEE7FEE7FEE7FEE765
:10037000FEE7FEE7FEE7FEE7FEE7FEE7FEE7FEE755
:10038000FEE7FEE7FEE7FEE7FEE7FEE7FEE7FEE745
:10039000FEE7FEE7FEE7FEE7FEE7FEE7FEE7FEE735
:1003A000FEE7FEE7FEE7FEE7FEE7FEE7FEE7FEE725
:1003B000FEE7FEE7FEE7FEE7FEE7FEE7FEE7FEE715
:1003C000FEE7FEE7FEE7FEE7FEE7FEE7FEE7FEE705
:1003D000FEE7FEE7FEE7FEE7FEE7FEE7FEE7FEE7F5
:1003E000FEE7FEE7FEE7FEE7FEE7FEE7FEE7FEE7E5
:1003F000FEE7FEE7FEE7FEE7FEE7FEE7FEE7FEE7D5
:10040000FEE7FEE7FEE7FEE7FEE7FEE7FEE7FEE7C4
:10041000FEE7FEE704480549034A054B7047000024
:10042000350400006D020000680000206802002012
:10043000680000204D48006840F470004B49086097
:10044000704708B54A48006840F0200048490860F5
:100450000846006800904748006840F01E00454983
:1004600008604548006840F00E00434908600846AF
:10047000006820F0100008603E480C38006840F02A
:1004800010003C490C390860FFF740FF3B4800680A
:1004900040F080404FF0E021C1F80001384800688A
:1004A00020F47F0040F4200035490860354800689A
:1004B0004FF00000334908603348006820F0100016
:1004C0003149086001F10400006820F0100001F1DA
:1004D0000401086001F10400006820F0100001F13F
:1004E000040108602948006840F0100027490860AE
:1004F0002448006840F0100022490860FFF70AFF16
:10050000FFF706FF08BD002100BF00E0491C814243
:10051000FCD3704700B51E480068032803D30120B0
:100520001B49086004E01A480068401C184908602C
:1005300000230CE01748806F15490A68012191409B
:100540004840144988671448FFF7DDFF5B1C022B05
:10055000F0DB0E48006840F010000C49086000BD58
:10056000FFF76FFF01E0FFF7DAFEFCE788ED00E040
:1005700008E60F401C5502400054024000E100E034
:100580001CE400E010540240045402401C54024099
:10059000000000200050024080969800704770478D
:1005A0007047754600F028F8AE4605006946534688
:1005B00020F00700854618B020B5FFF72BFFBDE8F7
:1005C00020404FF000064FF000074FF000084FF0BA
:1005D000000B21F00701AC46ACE8C009ACE8C0094B
:1005E000ACE8C009ACE8C0098D4670470446AFF3DB
:1005F00000802046FFF783FE00487047040000207B
:1006000001491820ABBEFEE72600020070474FF0FC
:100610004070E1EE100A704738060000000000202C
:1006200004000000A80200003C06000004000020B6
:0C06300064020000C40200000000000092
:0400000500000323D1
:00000001FF
