:020000040000FA
:1000000098020020230300002B0300002D030000B2
:100010002F03000031030000330300000000000044
:100020000000000000000000000000003503000098
:100030003703000000000000390300003B0300000C
:100040003D0300003F0300004103000043030000A4
:100050004503000047030000490300004B03000074
:100060004D0300004F030000510300005303000044
:100070005503000057030000590300005B03000014
:100080005D0300005F0300006103000063030000E4
:100090006503000067030000690300006B030000B4
:1000A0006D0300006F030000710300007303000084
:1000B0007503000077030000A90500007B03000022
:1000C0007D0300007F030000810300008303000024
:1000D0008503000087030000890300008B030000F4
:1000E0008D0300008F03000000000000910300005A
:1000F000930300009503000097030000990300009C
:100100009B0300009D0300009F030000A10300006B
:100110000000000000000000A3030000A503000091
:10012000A7030000A9030000AB030000AD0300001B
:10013000AF030000B1030000B3030000B5030000EB
:1001400000000000000000000000000000000000AF
:10015000B7030000B9030000BB030000BD030000AB
:10016000000000000000000000000000000000008F
:10017000000000000000000000000000000000007F
:10018000000000000000000000000000000000006F
:10019000000000000000000000000000000000005F
:1001A000000000000000000000000000000000004F
:1001B000BF030000C1030000C3030000C50300002B
:1001C000C7030000C9030000CB030000CD030000FB
:1001D000CF030000D1030000D3030000D5030000CB
:1001E000D7030000D9030000DB030000000000007B
:1001F00000000000DD030000DF030000E103000059
:10020000E3030000E5030000000000000000000020
:10021000E7030000E9030000EB030000ED0300002A
:10022000EF030000F1030000F3030000F5030000FA
:10023000F7030000F9030000FB030000FD030000CA
:10024000FF03000001040000030400000504000097
:1002500007040000090400000B0400000D04000066
:100260000F040000110400001304000000F002F865
:1002700000F03CF80AA090E8000C82448344AAF104
:100280000107DA4501D100F031F8AFF2090EBAE802
:100290000F0013F0010F18BFFB1A43F001031847BA
:1002A000D4040000F4040000103A24BF78C878C1D8
:1002B000FAD8520724BF30C830C144BF04680C606C
:1002C000704700000023002400250026103A28BFB4
:1002D00078C1FBD8520728BF30C148BF0B607047B8
:1002E0001FB500F038FA1FBD10B510BD00F0FDF9C4
:1002F0001146FFF7F5FF00F08BF900F01BFA03B48D
:10030000FFF7F2FF03BC00F01FFA000072B670475F
:1003100062B670474FF0E00080F31188704730BF3D
:1003200070473F4880473F480047FEE7FEE7FEE74B
:10033000FEE7FEE7FEE7FEE7FEE7FEE7FEE7FEE795
:10034000FEE7FEE7FEE7FEE7FEE7FEE7FEE7FEE785
:10035000FEE7FEE7FEE7FEE7FEE7FEE7FEE7FEE775
:10036000FEE7FEE7FEE7FEE7FEE7FEE7FEE7FEE765
:10037000FEE7FEE7FEE7FEE7FEE7FEE7FEE7FEE755
:10038000FEE7FEE7FEE7FEE7FEE7FEE7FEE7FEE745
:10039000FEE7FEE7FEE7FEE7FEE7FEE7FEE7FEE735
:1003A000FEE7FEE7FEE7FEE7FEE7FEE7FEE7FEE725
:1003B000FEE7FEE7FEE7FEE7FEE7FEE7FEE7FEE715
:1003C000FEE7FEE7FEE7FEE7FEE7FEE7FEE7FEE705
:1003D000FEE7FEE7FEE7FEE7FEE7FEE7FEE7FEE7F5
:1003E000FEE7FEE7FEE7FEE7FEE7FEE7FEE7FEE7E5
:1003F000FEE7FEE7FEE7FEE7FEE7FEE7FEE7FEE7D5
:10040000FEE7FEE7FEE7FEE7FEE7FEE7FEE7FEE7C4
:10041000FEE7FEE704480549034A054B7047000024
:10042000350400006D0200009800002098020020B2
:10043000980000204F48006840F470004D49086063
:1004400070474D49096841F02B014B4A1160114634
:1004500008684A4909684A4A1143484A1160111D0F
:10046000096841F01101121D11604649096841F007
:100470003C01444A11604449096841F0FF01424A85
:1004800011604249096841F00301404A11603B494B
:10049000091F096841F01101384A121F11603C49D7
:1004A000096841F03C013A4A11603A49096841F053
:1004B000FF01384A11603849096841F00301364AA2
:1004C00011603649096821F01101344A11602B4945
:1004D0001039096841F01101284A103A116070473B
:1004E00010B5FFF713FF2D481030006800202B498E
:1004F000103108602948001D006820F011002749CC
:10050000091D0860081D006820F01100091D086021
:10051000081D006820F01100091D08601F481C30EC
:10052000006840F011001D491C3108601B48103064
:10053000006840F01100194910310860184800683F
:1005400040F080404FF0E021C1F8000115480068FC
:1005500020F47F0040F4200012490860FFF7DAFE23
:10056000FFF7D6FE10BD002100E0491C8142FCD3FC
:100570007047000088ED00E008E60F40205502407B
:100580004B434F4C1C4500401C5500401C7500401F
:1005900000440040005400400074004000540240F9
:1005A00000E100E01CE400E010B542F21070FFF73B
:1005B000DAFF43480068012812D14148001D006855
:1005C00040F001003E49091D08603E48006880F087
:1005D00001003D49C1F8FC034FF000003B490860B1
:1005E00037480068102812D13548001D006840F0D7
:1005F00010003349091D08603248006880F002008D
:100600003149C1F8FC034FF001003049086010BDCA
:100610000025FFF716FFFFF763FF4FE02B48006848
:1006200020BB00261AE0002415E03C202849086081
:1006300004EB0500274951F820002749085C2749A9
:10064000C1F8FC032648005D2149086042F21070A1
:10065000FFF789FF641C042CE7DB761C642EE2DBC9
:10066000082D01DB002529E06D1C27E017480068F4
:10067000012823D100261AE0002415E03C2014496B
:10068000086004EB0500134951F820001249085C8A
:100690001249C1F8FC031248005D0D49086042F29E
:1006A0001070FFF760FF641C042CE7DB761C642EDF
:1006B000E2DB002D01DC082500E06D1EAEE7000046
:1006C00018540240FC7300400070004030000020CD
:1006D000FC43004000000020600700000050004084
:1006E00070070000704770477047754600F028F8A3
:1006F000AE4605006946534620F00700854618B00F
:1007000020B5FFF787FEBDE820404FF000064FF010
:1007100000074FF000084FF0000B21F00701AC4636
:10072000ACE8C009ACE8C009ACE8C009ACE8C00955
:100730008D4670470446AFF300802046FFF7DFFD8B
:10074000004870473400002001491820ABBEFEE786
:100750002600020070474FF04070E1EE100A70472B
:10076000C0F9A4B0999282F880908883C6A1868E41
:10077000DFEFF7FB940700000000002034000000CA
:10078000A8020000C8070000340000206402000036
:10079000C40200000200000000000000020000008F
:1007A000010000000E0000000E000000000000002C
:1007B000050000000300000002000000000000002F
:0807C00002000000000000002F
:0400000500000323D1
:00000001FF
