:020000040000FA
:1000000060020020070300000F030000110300003E
:100010001303000015030000170300000000000098
:1000200000000000000000000000000019030000B4
:100030001B030000000000001D0300001F03000060
:100040002103000023030000250300002703000014
:10005000290300002B0300002D0300002F030000E4
:1000600031030000330300003503000037030000B4
:10007000390300003B0300003D0300003F03000084
:100080004103000043030000450300004703000054
:10009000490300004B0300004D0300004F03000024
:1000A00051030000530300005503000057030000F4
:1000B000590300005B030000190400005F03000007
:1000C0006103000063030000650300006703000094
:1000D000690300006B0300006D0300006F03000064
:1000E00071030000730300000000000075030000AE
:1000F00077030000790300007B0300007D0300000C
:100100007F030000810300008303000085030000DB
:1001100000000000000000008703000089030000C9
:100120008B0300008D0300008F030000910300008B
:10013000930300009503000097030000990300005B
:1001400000000000000000000000000000000000AF
:100150009B0300009D0300009F030000A10300001B
:10016000000000000000000000000000000000008F
:10017000000000000000000000000000000000007F
:10018000000000000000000000000000000000006F
:10019000000000000000000000000000000000005F
:1001A000000000000000000000000000000000004F
:1001B000A3030000A5030000A7030000A90300009B
:1001C000AB030000AD030000AF030000B10300006B
:1001D000B3030000B5030000B7030000B90300003B
:1001E000BB030000BD030000BF03000000000000CF
:1001F00000000000C1030000C3030000C5030000AD
:10020000C7030000C9030000000000000000000058
:10021000CB030000CD030000CF030000D10300009A
:10022000D3030000D5030000D7030000D90300006A
:10023000DB030000DD030000DF030000E10300003A
:10024000E3030000E5030000E7030000E90300000A
:10025000EB030000ED030000EF030000F1030000DA
:10026000F3030000F5030000F703000000F002F8BC
:1002700000F02EF80AA090E8000C82448344AAF112
:100280000107DA4501D100F023F8AFF2090EBAE810
:100290000F0013F0010F18BFFB1A43F001031847BA
:1002A000E8030000F80300000023002400250026D6
:1002B000103A28BF78C1FBD8520728BF30C148BFC9
:1002C0000B6070471FB500F0D2F91FBD10B510BD0F
:1002D00000F097F91146FFF7F5FF00F0BFF800F0C6
:1002E000B5F903B4FFF7F2FF03BC00F0B9F9000061
:1002F00072B6704762B670474FF0E00080F3118825
:10030000704730BF70473F4880473F480047FEE78F
:10031000FEE7FEE7FEE7FEE7FEE7FEE7FEE7FEE7B5
:10032000FEE7FEE7FEE7FEE7FEE7FEE7FEE7FEE7A5
:10033000FEE7FEE7FEE7FEE7FEE7FEE7FEE7FEE795
:10034000FEE7FEE7FEE7FEE7FEE7FEE7FEE7FEE785
:10035000FEE7FEE7FEE7FEE7FEE7FEE7FEE7FEE775
:10036000FEE7FEE7FEE7FEE7FEE7FEE7FEE7FEE765
:10037000FEE7FEE7FEE7FEE7FEE7FEE7FEE7FEE755
:10038000FEE7FEE7FEE7FEE7FEE7FEE7FEE7FEE745
:10039000FEE7FEE7FEE7FEE7FEE7FEE7FEE7FEE735
:1003A000FEE7FEE7FEE7FEE7FEE7FEE7FEE7FEE725
:1003B000FEE7FEE7FEE7FEE7FEE7FEE7FEE7FEE715
:1003C000FEE7FEE7FEE7FEE7FEE7FEE7FEE7FEE705
:1003D000FEE7FEE7FEE7FEE7FEE7FEE7FEE7FEE7F5
:1003E000FEE7FEE7FEE7FEE7FEE7FEE7FEE7FEE7E5
:1003F000FEE7FEE7FEE7FEE704480549034A054B32
:1004000070470000810400006D02000060000020C1
:1004100060020020600000201349096841F00301D8
:10042000114A11601149096881F00201104AC2F8AD
:10043000FC131049096801F00F004FF03C014FF028
:100440004022C2F8FC130C49095C0C4A11606FF0A1
:1004500004014FF04022C2F8FC13704700F017F877
:1004600000F06CF800BFFEE71C540240FC53024051
:1004700000500240FC73004078060000FC5300402E
:100480005148006840F470004F49086070474F4978
:10049000096841F02B014D4A1160114608684C492A
:1004A00009684C4A11434A4A1160111D096841F01C
:1004B0000301121D11604849096841F00401464AD0
:1004C00011604649096841F0FF01444A11604449FE
:1004D000096841F00F01424A11603D49091F09684E
:1004E00041F003013A4A121F11603E49096841F088
:1004F00004013C4A11603C49096841F0FF013A4A55
:1005000011603A49096821F00F01384A11603849F1
:10051000096821F00301364A116031490839096838
:1005200041F00F012E4A083A116029491039096833
:1005300041F00101264A103A1160704710B5FFF7EB
:10054000D7FE2B4810300068002029491031086080
:100550002748001D006820F003002549091D086098
:10056000081D006820F00300091D0860081D0068D0
:1005700040F00300091D08601D481C30006840F071
:1005800003001B491C31086019481030006840F016
:1005900003001749103108604FF420001549086026
:1005A0001548006840F080404FF0E021C1F800019C
:1005B000FFF7A2FEFFF79EFE10BD002100E0491CE0
:1005C0008142FCD37047000088ED00E008E60F4050
:1005D000205502404B434F4C1C4500401C550040E9
:1005E0001C7500400044004000540040007400406E
:1005F000005402401CE400E000E100E07047704756
:100600007047754600F028F8AE4605006946534627
:1006100020F00700854618B020B5FFF7EDFEBDE8D5
:1006200020404FF000064FF000074FF000084FF059
:10063000000B21F00701AC46ACE8C009ACE8C009EA
:10064000ACE8C009ACE8C0098D4670470446AFF37A
:1006500000802046FFF745FE00487047000000205C
:1006600001491820ABBEFEE72600020070474FF09C
:100670004070E1EE100A7047C0F9A4B0999282F878
:1006800080908883C6A1868E980600000000002016
:0806900060020000A802000056
:0400000500000307ED
:00000001FF
