:020000040000FA
:1000000060020020F1020000F9020000FB02000083
:10001000FD020000FF0200000103000000000000DC
:1000200000000000000000000000000003030000CA
:1000300005030000000000000703000009030000A2
:100040000B0300000D0300000F030000110300006C
:10005000130300001503000017030000190300003C
:100060001B0300001D0300001F030000210300000C
:1000700023030000250300002703000029030000DC
:100080002B0300002D0300002F03000031030000AC
:10009000330300003503000037030000390300007C
:1000A0003B0300003D0300003F030000410300004C
:1000B000430300004503000047030000490300001C
:1000C0004B0300004D0300004F03000051030000EC
:1000D00053030000550300005703000059030000BC
:1000E0005B0300005D030000000000005F030000F0
:1000F0006103000063030000650300006703000064
:10010000690300006B0300006D0300006F03000033
:1001100000000000000000007103000073030000F5
:100120007503000077030000790300007B030000E3
:100130007D0300007F0300008103000083030000B3
:1001400000000000000000000000000000000000AF
:100150008503000087030000890300008B03000073
:10016000000000000000000000000000000000008F
:10017000000000000000000000000000000000007F
:10018000000000000000000000000000000000006F
:10019000000000000000000000000000000000005F
:1001A000000000000000000000000000000000004F
:1001B0008D0300008F0300009103000093030000F3
:1001C0009503000097030000990300009B030000C3
:1001D0009D0300009F030000A1030000A303000093
:1001E000A5030000A7030000A90300000000000011
:1001F00000000000AB030000AD030000AF030000EF
:10020000B1030000B3030000000000000000000084
:10021000B5030000B7030000B9030000BB030000F2
:10022000BD030000BF030000C1030000C3030000C2
:10023000C5030000C7030000C9030000CB03000092
:10024000CD030000CF030000D1030000D303000062
:10025000D5030000D7030000D9030000DB03000032
:10026000DD030000DF030000E103000000F002F8FE
:1002700000F02EF80AA090E8000C82448344AAF112
:100280000107DA4501D100F023F8AFF2090EBAE810
:100290000F0013F0010F18BFFB1A43F001031847BA
:1002A0005003000060030000002300240025002606
:1002B000103A28BF78C1FBD8520728BF30C148BFC9
:1002C0000B6070471FB500F08EF91FBD10B510BD53
:1002D00000F053F91146FFF7F5FF00F02BF900F09D
:1002E00071F903B4FFF7F2FF03BC00F075F90000E9
:1002F0003F4880473F480047FEE7FEE7FEE7FEE74E
:10030000FEE7FEE7FEE7FEE7FEE7FEE7FEE7FEE7C5
:10031000FEE7FEE7FEE7FEE7FEE7FEE7FEE7FEE7B5
:10032000FEE7FEE7FEE7FEE7FEE7FEE7FEE7FEE7A5
:10033000FEE7FEE7FEE7FEE7FEE7FEE7FEE7FEE795
:10034000FEE7FEE7FEE7FEE7FEE7FEE7FEE7FEE785
:10035000FEE7FEE7FEE7FEE7FEE7FEE7FEE7FEE775
:10036000FEE7FEE7FEE7FEE7FEE7FEE7FEE7FEE765
:10037000FEE7FEE7FEE7FEE7FEE7FEE7FEE7FEE755
:10038000FEE7FEE7FEE7FEE7FEE7FEE7FEE7FEE745
:10039000FEE7FEE7FEE7FEE7FEE7FEE7FEE7FEE735
:1003A000FEE7FEE7FEE7FEE7FEE7FEE7FEE7FEE725
:1003B000FEE7FEE7FEE7FEE7FEE7FEE7FEE7FEE715
:1003C000FEE7FEE7FEE7FEE7FEE7FEE7FEE7FEE705
:1003D000FEE7FEE7FEE7FEE7FEE7FEE7FEE7FEE7F5
:1003E000FEE7000004480549034A054B704700003A
:1003F000050400006D020000600000206002002083
:10040000600000205148006840F470004F490860C7
:10041000704708B54E48006840F008004C49086035
:100420000846006800904A481030006840F0040018
:100430004749103108600846006800904548464921
:100440000860081D006840F0FF00091D0860424870
:10045000001F006840F0C0003F49091F08603F4886
:10046000006840F0C0003D4908603B480C3000681F
:1004700040F0885038490C3108603948006B20F052
:100480000100374908630020364908603448006B92
:1004900020F0200032490863082048622C2088623E
:1004A0000846C06A20F00200C8620846C06A20F010
:1004B0000800C8620846C06A40F01000C8620846DA
:1004C000C06A40F06000C8620846006B40F001005E
:1004D000086308BD00BF2248806910F0100FFAD1F0
:1004E0001F480068C0B2704700BF1D49896911F0FC
:1004F000200FFAD11A490860704730B502460B4602
:100500000024FFF7E7FF05469C4205DA1570521CF0
:10051000641C2846FFF7E8FF0020107030BD00B5CE
:10052000024603E01078FFF7DFFF521C1078002826
:10053000F8D100BD85B0FFF76CFF0BA0FFF7EFFF10
:1005400003E010216846FFF7D8FFFAE788ED00E0E6
:1005500008E60F404B434F4C20750040207400408C
:1005600000E00040C8EF0040456E74657254657845
:10057000743A0000704770477047754600F028F8DD
:10058000AE4605006946534620F00700854618B080
:1005900020B5FFF727FFBDE820404FF000064FF0E1
:1005A00000074FF000084FF0000B21F00701AC46A8
:1005B000ACE8C009ACE8C009ACE8C009ACE8C009C7
:1005C0008D4670470446AFF300802046FFF789FE52
:1005D000004870470000002001491820ABBEFEE72C
:1005E0002600020070474FF04070E1EE100A70479D
:1005F000000600000000002060020000A8020000C9
:04000005000002F104
:00000001FF
