:020000040000FA
:1000000060020020070300000F030000110300003E
:100010001303000015030000170300000000000098
:1000200000000000000000000000000019030000B4
:100030001B030000000000001D0300001F03000060
:100040002103000023030000250300002703000014
:10005000290300002B0300002D0300002F030000E4
:1000600031030000330300003503000037030000B4
:10007000390300003B0300003D0300003F03000084
:100080004103000043030000450300004703000054
:10009000B50600004B030000AB0600004F03000054
:1000A00051030000530300005503000057030000F4
:1000B000590300005B030000BF0600005F0300005F
:1000C0006103000063030000650300006703000094
:1000D000690300006B0300006D0300006F03000064
:1000E00071030000730300000000000075030000AE
:1000F00077030000790300007B0300007D0300000C
:100100007F030000810300008303000085030000DB
:1001100000000000000000008703000089030000C9
:100120008B0300008D0300008F030000910300008B
:10013000930300009503000097030000990300005B
:1001400000000000000000000000000000000000AF
:100150009B0300009D0300009F030000A10300001B
:10016000000000000000000000000000000000008F
:10017000000000000000000000000000000000007F
:10018000000000000000000000000000000000006F
:10019000000000000000000000000000000000005F
:1001A000000000000000000000000000000000004F
:1001B000A3030000A5030000A7030000A90300009B
:1001C000AB030000AD030000AF030000B10300006B
:1001D000B3030000B5030000B7030000B90300003B
:1001E000BB030000BD030000BF03000000000000CF
:1001F00000000000C1030000C3030000C5030000AD
:10020000C7030000C9030000000000000000000058
:10021000CB030000CD030000CF030000D10300009A
:10022000D3030000D5030000D7030000D90300006A
:10023000DB030000DD030000DF030000E10300003A
:10024000E3030000E5030000E7030000E90300000A
:10025000EB030000ED030000EF030000F1030000DA
:10026000F3030000F5030000F703000000F002F8BC
:1002700000F02EF80AA090E8000C82448344AAF112
:100280000107DA4501D100F023F8AFF2090EBAE810
:100290000F0013F0010F18BFFB1A43F001031847BA
:1002A0009C050000AC05000000230024002500266A
:1002B000103A28BF78C1FBD8520728BF30C148BFC9
:1002C0000B6070471FB500F0B4FA1FBD10B510BD2C
:1002D00000F079FA1146FFF7F5FF00F045FA00F05B
:1002E00097FA03B4FFF7F2FF03BC00F09BFA00009B
:1002F00072B6704762B670474FF0E00080F3118825
:10030000704730BF70473F4880473F480047FEE78F
:10031000FEE7FEE7FEE7FEE7FEE7FEE7FEE7FEE7B5
:10032000FEE7FEE7FEE7FEE7FEE7FEE7FEE7FEE7A5
:10033000FEE7FEE7FEE7FEE7FEE7FEE7FEE7FEE795
:10034000FEE7FEE7FEE7FEE7FEE7FEE7FEE7FEE785
:10035000FEE7FEE7FEE7FEE7FEE7FEE7FEE7FEE775
:10036000FEE7FEE7FEE7FEE7FEE7FEE7FEE7FEE765
:10037000FEE7FEE7FEE7FEE7FEE7FEE7FEE7FEE755
:10038000FEE7FEE7FEE7FEE7FEE7FEE7FEE7FEE745
:10039000FEE7FEE7FEE7FEE7FEE7FEE7FEE7FEE735
:1003A000FEE7FEE7FEE7FEE7FEE7FEE7FEE7FEE725
:1003B000FEE7FEE7FEE7FEE7FEE7FEE7FEE7FEE715
:1003C000FEE7FEE7FEE7FEE7FEE7FEE7FEE7FEE705
:1003D000FEE7FEE7FEE7FEE7FEE7FEE7FEE7FEE7F5
:1003E000FEE7FEE7FEE7FEE7FEE7FEE7FEE7FEE7E5
:1003F000FEE7FEE7FEE7FEE704480549034A054B32
:1004000070470000390400006D0200006000002009
:10041000600200206000002010B5002807DA4A07BB
:10042000140EDB4A00F00F031B1FD45403E04A07ED
:10043000130ED84A135410BDD5487030006840F4EC
:100440007000D34970310860704710B5D248006819
:1004500040F02000D049086008460468001F00688A
:1004600040F00200091F086008460468CB48006895
:1004700040F00800C9490860C848FC38006840F0EE
:100480000800C649FC390860C4481030006840F4D0
:10049000E040C24910310860C0480838006840F0A8
:1004A0000800BE4908390860BD48C06820F4807063
:1004B000BB49C8600846006840F004000860084670
:1004C000806840F20A210843B54988600846806880
:1004D00020F00400886049F64040C8621420C863D8
:1004E00049F640404863FFF703FF02211620FFF75B
:1004F00093FF162000F040F9A948406A40F480605C
:10050000A74948620846806940F4806088610846CF
:10051000C06840F48070C860FFF7ECFE10BD10B5F5
:100520009D48006840F020009B4908600846046828
:10053000001F006840F00100091F0860081D0468E2
:100540009648006840F00200944908609348FC38DF
:10055000006840F002009149FC3908608F48103073
:10056000006840F070008D49103108608B480838F1
:10057000006840F002008949083908608948C0686D
:1005800020F480708749C8600846006840F0040085
:1005900008600846806840F20A2108438149886063
:1005A0000846806820F00400886049F64040C86230
:1005B0001420C86349F640404863FFF799FE0221C2
:1005C0001420FFF729FF142000F0D6F87548406A80
:1005D00040F48060734948620846806940F4806056
:1005E00088610846C06840F48070C860FFF782FEEA
:1005F00010BD10B56848006840F0200066490860EA
:1006000069486649091D0860081D006840F001003E
:10061000091D08606148006840F011005F490860EA
:100620006248006820F01100604908605B480C389F
:10063000006840F0110059490C390860FFF758FE76
:1006400001211E20FFF7E8FE1E2000F095F8574814
:100650001030006800205549103108605348001DD3
:10066000006820F011005149091D0860081D00684C
:1006700020F01100091D0860081D006820F011001D
:10068000091D086049481C30006840F011004749C6
:100690001C31086045481030006840F011004349A3
:1006A00010310860FFF726FE10BD4FF480603C4912
:1006B000486270474FF480603A49486270473B484F
:1006C0001830006810F0010F21D03548C06820F4C0
:1006D00080703349C86031481030006820F4805081
:1006E0002E49103108603248006820F00F0031496F
:1006F000C1F8FC033048006840F070002E490860E3
:100700002848C06840F480702649C86025E0274822
:100710001830006800F0100010281ED12148C06871
:1007200020F480701F49C8602348006820F0100042
:10073000214908601E48006820F00F001D49C1F8DB
:10074000FC031D48006840F4E0401B490860144861
:10075000C06840F480701249C8601848006840F0D2
:100760001100164908607047FFF7D9FEFFF76DFECC
:10077000FFF73FFF00BFFEE700F01F02012191409D
:1007800042094FF0E02303EB8202C2F800117047E8
:1007900018ED00E000E400E008E60F401C550240C0
:1007A00000100340000003404B434F4C00540240F4
:1007B000FC530240005002402C5502401C540240A1
:1007C000704770477047754600F028F8AE46050040
:1007D0006946534620F00700854618B020B5FFF75C
:1007E0000BFEBDE820404FF000064FF000074FF031
:1007F00000084FF0000B21F00701AC46ACE8C0093F
:10080000ACE8C009ACE8C009ACE8C0098D46704747
:100810000446AFF300802046FFF763FD00487047B1
:100820000000002001491820ABBEFEE726000200B0
:1008300070474FF04070E1EE100A70474C0800001E
:0C0840000000002060020000A802000080
:0400000500000307ED
:00000001FF
