:020000040000FA
:1000000068020020230300002B0300002D030000E2
:100010002F03000031030000330300000000000044
:100020000000000000000000000000003503000098
:100030003703000000000000390300003B0300000C
:100040003D0300004F040000410300004303000093
:10005000AB04000047030000490300004B0300000D
:100060004D0300004F030000510300005303000044
:100070005503000057030000590300005B03000014
:100080005D0300005F0300006103000063030000E4
:100090006503000067030000690300006B030000B4
:1000A0006D0300006F030000710300007303000084
:1000B0007503000077030000790300007B03000054
:1000C0007D0300007F030000810300008303000024
:1000D0008503000087030000890300008B030000F4
:1000E0008D0300008F03000000000000910300005A
:1000F000930300009503000097030000990300009C
:100100009B0300009D0300009F030000A10300006B
:100110000000000000000000A3030000A503000091
:10012000A7030000A9030000AB030000AD0300001B
:10013000AF030000B1030000B3030000B5030000EB
:1001400000000000000000000000000000000000AF
:10015000B7030000B9030000BB030000BD030000AB
:10016000000000000000000000000000000000008F
:10017000000000000000000000000000000000007F
:10018000000000000000000000000000000000006F
:10019000000000000000000000000000000000005F
:1001A000000000000000000000000000000000004F
:1001B000BF030000C1030000C3030000C50300002B
:1001C000C7030000C9030000CB030000CD030000FB
:1001D000CF030000D1030000D3030000D5030000CB
:1001E000D7030000D9030000DB030000000000007B
:1001F00000000000DD030000DF030000E103000059
:10020000E3030000E5030000000000000000000020
:10021000E7030000E9030000EB030000ED0300002A
:10022000EF030000F1030000F3030000F5030000FA
:10023000F7030000F9030000FB030000FD030000CA
:10024000FF03000001040000030400000504000097
:1002500007040000090400000B0400000D04000066
:100260000F040000110400001304000000F002F865
:1002700000F03CF80AA090E8000C82448344AAF104
:100280000107DA4501D100F031F8AFF2090EBAE802
:100290000F0013F0010F18BFFB1A43F001031847BA
:1002A0001C0600003C060000103A24BF78C878C144
:1002B000FAD8520724BF30C830C144BF04680C606C
:1002C000704700000023002400250026103A28BFB4
:1002D00078C1FBD8520728BF30C148BF0B607047B8
:1002E0001FB500F0E6FA1FBD10B510BD00F0ABFA67
:1002F0001146FFF7F5FF00F09DF800F0C9FA03B4CE
:10030000FFF7F2FF03BC00F0CDFA000072B67047B1
:1003100062B670474FF0E00080F31188704730BF3D
:1003200070473F4880473F480047FEE7FEE7FEE74B
:10033000FEE7FEE7FEE7FEE7FEE7FEE7FEE7FEE795
:10034000FEE7FEE7FEE7FEE7FEE7FEE7FEE7FEE785
:10035000FEE7FEE7FEE7FEE7FEE7FEE7FEE7FEE775
:10036000FEE7FEE7FEE7FEE7FEE7FEE7FEE7FEE765
:10037000FEE7FEE7FEE7FEE7FEE7FEE7FEE7FEE755
:10038000FEE7FEE7FEE7FEE7FEE7FEE7FEE7FEE745
:10039000FEE7FEE7FEE7FEE7FEE7FEE7FEE7FEE735
:1003A000FEE7FEE7FEE7FEE7FEE7FEE7FEE7FEE725
:1003B000FEE7FEE7FEE7FEE7FEE7FEE7FEE7FEE715
:1003C000FEE7FEE7FEE7FEE7FEE7FEE7FEE7FEE705
:1003D000FEE7FEE7FEE7FEE7FEE7FEE7FEE7FEE7F5
:1003E000FEE7FEE7FEE7FEE7FEE7FEE7FEE7FEE7E5
:1003F000FEE7FEE7FEE7FEE7FEE7FEE7FEE7FEE7D5
:10040000FEE7FEE7FEE7FEE7FEE7FEE7FEE7FEE7C4
:10041000FEE7FEE704480549034A054B7047000024
:10042000910500006D0200006800002068020020B5
:100430006800002000F0B3F800F0EBF800F0E2F9FB
:1004400033A000F0AAF901E0FFF769FFFCE710B55F
:100450003B48006840F004003949086001203949F0
:1004600008603948006840F008003849C1F8FC03CA
:100470004FF0000400E0641C35488442FBDB354843
:100480000068012805D134A000F087F90020314927
:1004900008602D48006820F008002C49C1F8FC03D2
:1004A0004FF000002749086010BD10B530480068C3
:1004B00040F002002E4908602348006840F0040024
:1004C0002249C1F8FC034FF0000400E0641C2048FE
:1004D0008442FBDB1B48006801280AD125480068DC
:1004E000022806D124A000F058F90020194908601C
:1004F00006E020480068022802D101201549086062
:100500001148006820F004001049C1F8FC0310BD38
:10051000507265656D7074696F6E20616E642074D1
:1005200061696C636861696E696E672064656D6F8F
:100530006E7374726174696F6E200D200A00000082
:100540001C54004004000020FC53024000500240B4
:1005500000350C00000000205461696C636861691B
:100560006E67206F6363757265640D200A0000007A
:100570001C44024000E200E0507265656D707469D1
:100580006F6E206F6363757265640D200A00000052
:100590008748006840F470008549086070478548C6
:1005A000006840F001008349086082481038006804
:1005B00040F001007F49103908607F48006840F032
:1005C00003007D4908607C48FC38006840F0030067
:1005D0007949FC39086078481030006840F0110013
:1005E0007549103108607548006B20F001007349AF
:1005F0000863082048622C2088627020C8620020AE
:100600006F4908606D48006B40F001006B4908635A
:10061000704708B567481038006840F01200654917
:10062000103908600846006800906648006840F08D
:100630000400644908606448006840F002006249B0
:1006400008606248006820F0040060490860604863
:10065000006820F002005E4908605A480C380068C3
:1006600040F0040057490C39086057480C380068BE
:1006700040F0020054490C390860FFF747FE534828
:100680001030006800205149103108605048103087
:10069000006800204E49103108604E48006840F064
:1006A00012004FF0E021C1F800014B48006820F42F
:1006B0007F4040F400404849086001F104000068B0
:1006C00020F0FF0040F0400001F1040108604348C1
:1006D000006820F00400414908604148006820F0AB
:1006E00002003F4908603F48006820F004003D498F
:1006F00008603D48006820F002003B4908603B4824
:10070000006820F00400394908603948006820F08A
:100710000200374908603748006840F00400354956
:1007200008603548006840F00200334908603348EB
:10073000006840F00400314908603148006840F02A
:1007400002002F490860FFF7E5FDFFF7E1FD08BD56
:1007500000BF1A48806910F0100FFAD117480068DE
:10076000C0B2704700BF1549896911F0200FFAD156
:1007700012490860704730B502460B460024FFF767
:10078000E7FF05469C4205DA1570521C641C28469A
:10079000FFF7E8FF0020107030BD00B5024603E00F
:1007A0001078FFF7DFFF521C10780028F8D100BD49
:1007B00088ED00E018E60F401C45004000C00040F6
:1007C000C8CF00401C5500401C450240005400406A
:1007D0000044024000E100E000E400E00454004076
:1007E0000444024008540040084402400C540040B5
:1007F0000C4402401C5400401C4402401054004071
:100800001044024008B50B48006840F02000094938
:1008100008600846006800900748006840F00C0037
:10082000054908600548006840F00C00034908606D
:1008300008BD000008E60F401C550240005402406D
:10084000704770477047754600F028F8AE460500BF
:100850006946534620F00700854618B020B5FFF7DB
:10086000D9FDBDE820404FF000064FF000074FF0E3
:1008700000084FF0000B21F00701AC46ACE8C009BE
:10088000ACE8C009ACE8C009ACE8C0098D467047C7
:100890000446AFF300802046FFF731FD0048704763
:1008A0000800002001491820ABBEFEE72600020028
:1008B00070474FF04070E1EE100A7047DC0800000E
:1008C0000000002008000000A8020000E40800006A
:1008D0000800002060020000C402000000000000C8
:0408E0000000000014
:0400000500000323D1
:00000001FF
