:020000040000FA
:1000000050060020230300002B0300002D030000F6
:100010002F03000031030000330300000000000044
:100020000000000000000000000000003503000098
:100030003703000000000000390300003B0300000C
:100040003D0300003F0300004103000043030000A4
:100050004503000047030000490300004B03000074
:100060004D0300004F030000510300005303000044
:100070005503000057030000590300005B03000014
:100080005D0300005F0300006103000063030000E4
:100090006503000067030000690300006B030000B4
:1000A0006D0300006F030000710300007303000084
:1000B0007503000077030000D90600007B030000F1
:1000C0007D0300007F030000810300008303000024
:1000D0008503000087030000890300008B030000F4
:1000E0008D0300008F03000000000000910300005A
:1000F000930300009503000097030000990300009C
:100100009B0300009D0300009F030000A10300006B
:100110000000000000000000A3030000A503000091
:10012000A7030000A9030000AB030000AD0300001B
:10013000AF030000B1030000B3030000B5030000EB
:1001400000000000000000000000000000000000AF
:10015000B7030000B9030000BB030000BD030000AB
:10016000000000000000000000000000000000008F
:10017000000000000000000000000000000000007F
:10018000000000000000000000000000000000006F
:10019000000000000000000000000000000000005F
:1001A000000000000000000000000000000000004F
:1001B000BF030000C1030000C3030000C50300002B
:1001C000C7030000C9030000CB030000CD030000FB
:1001D000CF030000D1030000D3030000D5030000CB
:1001E000D7030000D9030000DB030000000000007B
:1001F00000000000DD030000DF030000E103000059
:10020000E3030000E5030000000000000000000020
:10021000E7030000E9030000EB030000ED0300002A
:10022000EF030000F1030000F3030000F5030000FA
:10023000F7030000F9030000FB030000FD030000CA
:10024000FF03000001040000030400000504000097
:1002500007040000090400000B0400000D04000066
:100260000F040000110400001304000000F002F865
:1002700000F03CF80AA090E8000C82448344AAF104
:100280000107DA4501D100F031F8AFF2090EBAE802
:100290000F0013F0010F18BFFB1A43F001031847BA
:1002A000C8070000E8070000103A24BF78C878C1EA
:1002B000FAD8520724BF30C830C144BF04680C606C
:1002C000704700000023002400250026103A28BFB4
:1002D00078C1FBD8520728BF30C148BF0B607047B8
:1002E0001FB500F0BCFB1FBD10B510BD00F081FBB9
:1002F0001146FFF7F5FF00F0DFFA00F09FFB03B4B3
:10030000FFF7F2FF03BC00F0A3FB000072B67047DA
:1003100062B670474FF0E00080F31188704730BF3D
:1003200070473F4880473F480047FEE7FEE7FEE74B
:10033000FEE7FEE7FEE7FEE7FEE7FEE7FEE7FEE795
:10034000FEE7FEE7FEE7FEE7FEE7FEE7FEE7FEE785
:10035000FEE7FEE7FEE7FEE7FEE7FEE7FEE7FEE775
:10036000FEE7FEE7FEE7FEE7FEE7FEE7FEE7FEE765
:10037000FEE7FEE7FEE7FEE7FEE7FEE7FEE7FEE755
:10038000FEE7FEE7FEE7FEE7FEE7FEE7FEE7FEE745
:10039000FEE7FEE7FEE7FEE7FEE7FEE7FEE7FEE735
:1003A000FEE7FEE7FEE7FEE7FEE7FEE7FEE7FEE725
:1003B000FEE7FEE7FEE7FEE7FEE7FEE7FEE7FEE715
:1003C000FEE7FEE7FEE7FEE7FEE7FEE7FEE7FEE705
:1003D000FEE7FEE7FEE7FEE7FEE7FEE7FEE7FEE7F5
:1003E000FEE7FEE7FEE7FEE7FEE7FEE7FEE7FEE7E5
:1003F000FEE7FEE7FEE7FEE7FEE7FEE7FEE7FEE7D5
:10040000FEE7FEE7FEE7FEE7FEE7FEE7FEE7FEE7C4
:10041000FEE7FEE704480549034A054B7047000024
:10042000350400006D02000050040020500600203A
:1004300050040020F748006840F47000F549086057
:10044000704708B5F448006840F00100F2490860C0
:10045000084600680090F0481030006840F0010045
:10046000ED4910310860084600680090EB480068CC
:1004700040F00300E9490860E848FC38006840F0B3
:100480000300E649FC390860E4481030006840F099
:100490001100E24910310860E148006B20F00100D2
:1004A000DF4908630020DF490860DD48006B20F069
:1004B0002000DB490863082048622C208862084637
:1004C000C06A20F00200C8620846C06A20F0080036
:1004D000C8620846C06A40F01000C8620846C06A98
:1004E00040F06000C8620846006B40F201310843EA
:1004F000CB49086308BD08B5C748006840F008004C
:10050000C5490860084600680090C348103000687C
:1005100040F00400C04910310860084600680090AF
:10052000C148C2490860081D006840F08000091DEC
:100530000860BE48001F006840F0C000BB49091FAA
:100540000860BB48006840F0C000B9490860B7487F
:100550000C30006840F08850B4490C310860B54850
:10056000006B20F00100B34908630020B249086025
:10057000B048006B20F02000AE49086308204862B4
:100580002C2088620846C06A20F00200C862084633
:10059000C06A20F00800C8620846C06A40F0100037
:1005A000C8620846C06A40F06000C8620846006B36
:1005B00040F2013108439F49086308BD08B59648D9
:1005C000006840F0200094490860084600680090E8
:1005D0009A48006840F01600984908609748FC382F
:1005E000006820F016009549FC39086094480068BE
:1005F00040F00600924908600846006820F01000AC
:1006000008608E480C38006840F010008B490C39A7
:100610000860FFF77BFE8B48006840F080404FF099
:10062000E021C1F800018848006820F47F0040F410
:10063000200085490860854800684FF00000834924
:1006400008608348006820F010008149086001F1CB
:100650000400006820F0100001F10401086001F1BD
:100660000400006820F0100001F1040108607948DE
:10067000006840F01000774908607448006840F056
:10068000100072490860FFF745FEFFF741FE72480F
:10069000D0F8FC0340F004006F49C1F8FC030846A1
:1006A000D0F8FC0320F010006C4908604FF0000007
:1006B0006B49086004E06A480068401C68490860AB
:1006C000674800686428F6D36448006840F010006A
:1006D0006149C1F8FC0308BD6048006820F01000C3
:1006E0005D49C1F8FC034FF000005D49086004E07B
:1006F0005B480068401C5A490860594800685949DD
:100700008842F5D35548006840F010005249C1F8BE
:10071000FC035048006840F010004E4908607047E4
:1007200000BF3F48806910F0100FFAD13C480068C4
:10073000C0B2704700BF3A49896911F0200FFAD161
:100740003749086000BF3649896911F0080FFAD1AE
:10075000704700BF3748806910F0100FFAD1354854
:100760000068C0B2704700BF3249896911F0200F9C
:10077000FAD13049086000BF2E49896911F0080F8D
:10078000FAD1704700B5024613465320FFF7D2FF57
:100790006520FFF7CFFF6E20FFF7CCFF6420FFF747
:1007A000C9FF3A20FFF7C6FF2020FFF7C3FF03E091
:1007B0001078FFF7BFFF521C10780028F8D10D20E9
:1007C000FFF7B8FF0A20FFF7B5FF03E01878FFF73F
:1007D000CAFF5B1C18780028F8D10D20FFF7C3FF73
:1007E0000A20FFF7C0FF00BD00B5002204E01E494B
:1007F000885CFFF79FFF521C194800688242F6D3BD
:100800000020174908600D20FFF794FF0A20FFF72A
:1008100091FF00BD88ED00E008E60F401C45004058
:1008200000C00040C8CF00404B434F4C20750040F3
:100830002074004000E00040C8EF00401C5502401A
:100840000054024000E100E004E400E010540240E3
:10085000045402401C54024000500240FC53024029
:1008600000000020809698000400002010B5034688
:100870001C4614E0FFF76DFF3449354A126888546E
:10088000084633490968405C2178884201D1641CDC
:1008900000E01C462E480068401C2D490860207866
:1008A0000028E7D1FFF7A0FF10BD002100BF00E046
:1008B000491C8142FCD37047264D27A4FFF7C1FD98
:1008C000FFF719FEFFF77AFE25A0FFF75BFF26A0D2
:1008D000FFF7CCFF26A0FFF755FF28A0FFF7C6FFC4
:1008E00027A0FFF74FFF25A0FFF7C0FF2CA0FFF7C1
:1008F00049FF22A0FFF7BAFF2CA0FFF743FF1FA07C
:10090000FFF7B4FF2CA0FFF73DFF1CA0FFF7AEFFE1
:1009100000BFFFF705FF6128FBD12CA0FFF732FFD6
:1009200016A0FFF7A3FF2DA0FFF72CFF2846FFF727
:10093000BCFF03E02078FFF716FF641C2078002836
:10094000F8D101E0FFF750FFFCE7000004000020B1
:1009500000000020809698004279650D0A00000092
:1009600041542B52535400007265616479000000B9
:1009700041542B43574D4F44453D33004F4B0000EE
:1009800041542B43574A41503D2241686D616420D8
:1009900032222C226D616275747431393537220030
:1009A00041542B43494653520000000041542B430D
:1009B00049504D55583D310041542B434950534502
:1009C000525645523D312C383000000041542B43E3
:1009D00049505354415455530000000041542B4397
:1009E000495053454E443D302C3500007047704708
:1009F0007047754600F028F8AE4605006946534634
:100A000020F00700854618B020B5FFF703FDBDE8CC
:100A100020404FF000064FF000074FF000084FF065
:100A2000000B21F00701AC46ACE8C009ACE8C009F6
:100A3000ACE8C009ACE8C0098D4670470446AFF386
:100A400000802046FFF75BFC00487047EC03002065
:100A500001491820ABBEFEE72600020070474FF0A8
:100A60004070E1EE100A7047880A00000000002084
:100A700004000000A80200008C0A0000040000200E
:0C0A80004C060000C40200000000000052
:0400000500000323D1
:00000001FF
