:020000040000FA
:1000000070020020270300002F03000031030000CE
:100010003303000035030000370300000000000038
:100020000000000000000000000000003903000094
:100030003B030000000000003D0300003F03000000
:100040004103000043030000450300004703000094
:10005000490300004B0300004D0300004F03000064
:10006000BD050000530300005503000057030000C6
:10007000590300005B0300005D0300005F03000004
:1000800061030000630300006503000067030000D4
:10009000690300006B0300006D0300006F030000A4
:1000A0007103000073030000750300007703000074
:1000B000790300007B0300007D0300007F03000044
:1000C0008103000083030000850300008703000014
:1000D000890300008B0300008D0300008F030000E4
:1000E000910300009303000000000000950300004E
:1000F00097030000990300009B0300009D0300008C
:100100009F030000A1030000A3030000A50300005B
:100110000000000000000000A7030000A903000089
:10012000AB030000AD030000AF030000B10300000B
:10013000B3030000B5030000B7030000B9030000DB
:1001400000000000000000000000000000000000AF
:10015000BB030000BD030000BF030000C10300009B
:10016000000000000000000000000000000000008F
:10017000000000000000000000000000000000007F
:10018000000000000000000000000000000000006F
:10019000000000000000000000000000000000005F
:1001A000000000000000000000000000000000004F
:1001B000C3030000C5030000C7030000C90300001B
:1001C000CB030000CD030000CF030000D1030000EB
:1001D000D3030000D5030000D7030000D9030000BB
:1001E000DB030000DD030000DF030000000000006F
:1001F00000000000E1030000E3030000E50300004D
:10020000E7030000E9030000000000000000000018
:10021000EB030000ED030000EF030000F10300001A
:10022000F3030000F5030000F7030000F9030000EA
:10023000FB030000FD030000FF03000001040000B9
:100240000304000005040000070400000904000086
:100250000B0400000D0400000F0400001104000056
:1002600013040000150400001704000000F002F859
:1002700000F03EF80AA090E8000C82448344AAF102
:100280000107DA4501D100F033F8AFF2090EBAE800
:100290000F0013F0010F18BFFB1A43F001031847BA
:1002A000E81B0000F81B00000023002400250026A6
:1002B000103A28BF78C1FBD8520728BF30C148BFC9
:1002C0000B607047662901F09385672901F09085DE
:1002D000002070471FB501F086FD00F065FE0400A8
:1002E0000020002101F0A6FBE0601FBD10B510BD8D
:1002F00000F05AFF1146FFF7EDFF00F023FA00F07F
:1003000078FF03B4FFF7F2FF03BC00F0B9FF000071
:1003100072B6704762B670474FF0E00080F3118804
:10032000704730BF70473F4880473F480047FEE76F
:10033000FEE7FEE7FEE7FEE7FEE7FEE7FEE7FEE795
:10034000FEE7FEE7FEE7FEE7FEE7FEE7FEE7FEE785
:10035000FEE7FEE7FEE7FEE7FEE7FEE7FEE7FEE775
:10036000FEE7FEE7FEE7FEE7FEE7FEE7FEE7FEE765
:10037000FEE7FEE7FEE7FEE7FEE7FEE7FEE7FEE755
:10038000FEE7FEE7FEE7FEE7FEE7FEE7FEE7FEE745
:10039000FEE7FEE7FEE7FEE7FEE7FEE7FEE7FEE735
:1003A000FEE7FEE7FEE7FEE7FEE7FEE7FEE7FEE725
:1003B000FEE7FEE7FEE7FEE7FEE7FEE7FEE7FEE715
:1003C000FEE7FEE7FEE7FEE7FEE7FEE7FEE7FEE705
:1003D000FEE7FEE7FEE7FEE7FEE7FEE7FEE7FEE7F5
:1003E000FEE7FEE7FEE7FEE7FEE7FEE7FEE7FEE7E5
:1003F000FEE7FEE7FEE7FEE7FEE7FEE7FEE7FEE7D5
:10040000FEE7FEE7FEE7FEE7FEE7FEE7FEE7FEE7C4
:10041000FEE7FEE7FEE7FEE704480549034A054B11
:1004200070470000390400006D02000070000020D9
:100430007002002070000020FA48006840F470004C
:10044000F8490860704708B5F748006840F00100B7
:10045000F5490860084600680090F34810300068CD
:1004600040F00100F0491031086008460068009033
:10047000EE48006840F00300EC490860EB48FC38A7
:10048000006840F00300E949FC390860E748103093
:10049000006840F01100E54910310860E448006B45
:1004A00020F00100E24908630020E2490860E048CA
:1004B000006B20F02000DE490863082048622C20F1
:1004C00088620846C06A20F00200C8620846C06A16
:1004D00020F00800C8620846C06A40F01000C862F8
:1004E0000846C06A40F06000C8620846006B40F2EF
:1004F00001310843CE49086308BD08B5CA48006801
:1005000040F00200C8490860084600680090C648EC
:100510001830006840F00100C349183108600846EF
:1005200000680090C448006840F00C00C2490860B0
:10053000C148FC38006840F00C00BF49FC39086035
:10054000BD481030006840F44C50BB491031086081
:10055000B9481038006840F00800B7491039086001
:100560001020B64908620720C86008BD10B5FFF723
:10057000CFFEB348006840F480704FF0E021C1F82E
:100580000001B048006820F0FF0040F08000AD4955
:100590000860AA4800694FF00000A84908610846B1
:1005A000C06940F00100C8610846006940F00100E0
:1005B0000861FFF7B1FEFFF7ADFE10BD9F48C069AF
:1005C00040F001009D49C861704700BF9B484068EA
:1005D00010F0010FFAD19948006840F0D000974917
:1005E00008600846006840F0010008607047014656
:1005F000002000BF914A526812F0010FFAD1D022B8
:100600008E4B1A601A46916007225A6000BF8B4ACF
:10061000526812F0010FFAD1D122884B1A600B22D6
:100620005A6000BF854A526812F0030FFAD10DE0FC
:10063000824A9268844B1A540922804B5A6000BF48
:100640007E4A526812F0010FFAD1401C0E28EFDBEF
:1006500005227A4B5A6000BF784A526812F0010FA7
:10066000FAD17047014600BF7448406810F0010F8E
:10067000FAD1D020714A1060104681600720506086
:1006800000BF6E48406810F0010FFAD1D1206B4ACC
:1006900010600720506000BF6848406810F0010FEC
:1006A000FAD166488068C0B2704700BF634A52689A
:1006B00012F0010FFAD1D022604B1A601A469060F6
:1006C0000B225A6000BF5D4A526812F0010FFAD146
:1006D0005A4A91600922594B5A6000BF574A5268E2
:1006E00012F0010FFAD10522544B5A6000BF534A51
:1006F000526812F0010FFAD1704700BF4C48806970
:1007000010F0100FFAD14A480068C0B2704700BF1D
:100710004749896911F0200FFAD1454908607047AF
:1007200000B5024603E01078FFF7F1FF521C107885
:100730000028F8D100BD002100BF00E0491C814223
:10074000FCD370472DED048B8EB0002400250026CD
:100750000027A046A146A246FFF775FEFFF7CDFE93
:1007600000216B20FFF7A1FF10211C20FFF79DFF48
:1007700008211B20FFF799FF36E03B20FFF737FFEA
:10078000314840783049097840EA0120204404B2D9
:100790002D48C0782C49897840EA0120284405B2C8
:1007A000294840792849097940EA0120304406B2B5
:1007B0002548407A2449097A40EA0120384407B2A2
:1007C0002148C07A2049897A40EA012040440FFA42
:1007D00080F81D48407B1C49097B40EA01204844C1
:1007E0000FFA80F90AF1010ABAF10A0FC5DB0A20F3
:1007F00094FBF0F004B20A2095FBF0F005B20A2059
:1008000096FBF0F006B20A2097FBF0F007B20A2040
:1008100098FBF0F00FFA80F80A2099FBF0F00FFA3D
:1008200080F91DE188ED00E008E60F401C4500401E
:1008300000C00040C8CF00401C55004000000240EE
:1008400000E100E000E400E0000000208548FFF740
:1008500072FF3B20FFF7CBFE83A0FFF761FF8449C7
:100860004978834A127841EA0221091B08B201F053
:100870004FFA41EC100BB0EE409AF0EE609A9FED0B
:100880007D0B53EC102B51EC190B01F0E9F841EC06
:10089000100BB0EE408AF0EE608A53EC182B77A173
:1008A00001A800F007F901A8FFF73AFF74A0FFF7CD
:1008B00037FF6F49C9786E4A927841EA0221491B95
:1008C00008B201F025FA41EC100BB0EE409AF0EEC0
:1008D000609A9FED680B53EC102B51EC190B01F053
:1008E000BFF841EC100BB0EE408AF0EE608A53EC9A
:1008F000182B62A101A800F0DDF801A8FFF710FF96
:1009000061A0FFF70DFF5A494979594A127941EA26
:100910000221891B08B201F0FBF941EC100BB0EE8B
:10092000409AF0EE609A9FED530B53EC102B51EC74
:10093000190B01F095F841EC100BB0EE408AF0EE87
:10094000608A53EC182B4DA101A800F0B3F801A860
:10095000FFF7E6FE4EA0FFF7E3FE4549497A444A19
:10096000127A41EA0221C91B08B201F0D1F941EC27
:10097000100BB0EE409AF0EE609A9FED470B53ECEF
:10098000102B51EC190B01F06BF841EC100BB0EE91
:10099000408AF0EE608A53EC182B41A101A800F0C8
:1009A00089F801A8FFF7BCFE3EA0FFF7B9FE304969
:1009B000C97A2F4A927A41EA0221A1EB080108B2D2
:1009C00001F0A6F941EC100BB0EE409AF0EE609AFF
:1009D0009FED310B53EC102B51EC190B01F040F84B
:1009E00041EC100BB0EE408AF0EE608A53EC182B0D
:1009F00022A101A800F05EF801A8FFF791FE2BA04C
:100A0000FFF78EFE1A49497B194A127B41EA0221FF
:100A1000A1EB090108B201F07BF941EC100BB0EE3B
:100A2000409AF0EE609A9FED1C0B53EC102B51ECAA
:100A3000190B01F015F841EC100BB0EE408AF0EE06
:100A4000608A53EC182B0DA101A800F033F801A81F
:100A5000FFF766FE0D20FFF75AFE0A20FFF757FE4C
:100A6000F4E6000020A107002041783D20000000AE
:100A700000000020000000000000B04025670000DA
:100A80002041793D2000000020417A3D20000000F7
:100A900020202047783D20000000000000605040EA
:100AA000256600002047793D2000000020477A3D60
:100AB000200000000FB41CB5074B06AA7B44694612
:100AC0000090059800F057FA0020694600F066FA99
:100AD0001CBC5DF814FB0000DD0400002DE9F041B2
:100AE0000E460446002020622046E168884730B365
:100AF000252805D0D4E901219047206A401CF2E75F
:100B0000E168204600278847050018D0A5F141007C
:100B1000192802D820354FF400673246294620466E
:100B20002760FFF7CFFB40B1012804D0F61D26F067
:100B300007060836D8E7361DD6E72846DAE7206AE2
:100B4000BDE8F08170477047704770472DE9FF4F4F
:100B50000C461E464FF0FF378BB0D2E90001DDF89E
:100B600060800A908A46C1F30A5505B93D460021C6
:100B700008464FF00000BAF1000F00F4400005DA1B
:100B800000EB80004FF4400101EA50004FEA905919
:100B9000B9F1010F00DDB9460A9850EA4A000ED0BB
:100BA00044F61050A5F2FF3545432F14B8F1000F5D
:100BB0001ED07542291E1EDDC9F100021CE0B8F1ED
:100BC000010F4FF0000001D0302103E0F24305E0B7
:100BD0002154401CB042FBDB30460022002121544E
:100BE0000B99C1F80880C1E900200FB0BDE8F08F73
:100BF000BD1B6D1CDEE74A4600DA694206A800F01C
:100C00005DFA06AB07CB03AB07C350460A9900F069
:100C10003EFB8DE80700A0F500501F3800900398B8
:100C2000002D09DD42F21F014A46084403A9039042
:100C3000684600F09DFD08E0A0F500504A461F38C8
:100C400003A90390684600F0A7FD8DE807000004A3
:100C5000000C03D04FF0FF30410800E01046B8F11F
:100C6000000F03D00022009215461FE0751E06D427
:100C700000F09EF902F1300262556D1EF8D5B346C0
:100C80000122084302D000227F1C04E02078302893
:100C900001D100227F1E002A099787D01DE0112D67
:100CA00007DA00F085F9303262556D1C50EA010216
:100CB000F5D108430FD10021681E05E0235C625C7A
:100CC0006354491C2254401E8142F7DBAB46A81BEB
:100CD000401E099001E0009848B1002004F80B0084
:100CE0000B98099AC0F80880C0E9002B7DE711260F
:100CF0004FF000085AE72DE9F04F88460446D21D10
:100D000022F0070191B0D1E90001CDE90A0100F01C
:100D100079FE02460B98C00F01D02D2007E0206815
:100D2000810701D52B2002E0202101EAC000032A1F
:100D3000099001D0072A05DB03464146204600F012
:100D40007DF90FE12078800601D5E06900E00620FA
:100D5000B8F1650F814606D0B8F1660F18D0B8F12A
:100D6000670F72D132E00020B9F1110F009001DB62
:100D7000112301E009F101030AAA01A90CA8FFF758
:100D8000E5FEDDE90C70002609F10105834648E027
:100D900001204B4600904FF000470AAA01A90CA879
:100DA000FFF7D4FEDDE90DB00C995D46002618B9B9
:100DB00009F1010001EB0005B9EB050003D4C0F116
:100DC000FF3609F10105A5EB09002BE0B9F1010F90
:100DD00001DA4FF001090020B9F1110F00904846E7
:100DE00001DD112300E003460AAA01A90CA8FFF7C0
:100DF000ADFEDDE90C704D460026834620780007E5
:100E00000AD4AB4500DA5D4601A8012D04DD411985
:100E100011F8011C302907D04F4502DA17F1040FF1
:100E200004DA0120824610E06D1EEEE7002F02DC9E
:100E3000ED1B3E4403E0781CA84200DD0546A7EB0D
:100E4000060000F1010A4FF000472078000703D4A4
:100E5000AA4501DB4FF0FF3A0021B7F1004F0DF139
:100E600043088DF8431023D002202B23002F01DAF2
:100E70007F422D234FF00A0C011EA0F1010000DC7F
:100E80004FB197FBFCF10CFB11720F4602F13002DF
:100E900008F8012DF0E7A8F1010003702188090589
:100EA00001D5452100E06521A0F1010800F8011CF1
:100EB00009980FA9A1EB080707F1070700B1012066
:100EC00000EB050101EBEA70A1693844A1EB0000D9
:100ED000A0F10100A0612078C00602D42046AFF343
:100EE0000080099830B1D4E901219047206A00F1CF
:100EF000010020622078C00620D52046AFF3008094
:100F00001CE0002E04DBB34502DD01A8805D00E09B
:100F10003020D4E901219047206A761C401CBAF1A8
:100F2000010A20620AD100F03FF8C0680168405C05
:100F3000D4E901219047206A401C2062281EA5F1B7
:100F40000105DEDC07E0D4E9012118F8010B904728
:100F5000206A401C2062381EA7F10107F3DC2046FE
:100F6000AFF30080022011B040E6000001694A1C86
:100F700002610878704700B58FB0CDE901310021DA
:100F8000059105497944CDE9031011466846FFF7FC
:100F9000A5FD0FB000BD0000E5FFFFFF0A6802F8E5
:100FA000010B0A60704700000048704730000020C5
:100FB00030B5B0F10A024FEA900E71F100034EEA2B
:100FC000817EB0EB0E0061EB91014FEA101E4EEAFC
:100FD000017E10EB0E0041EB11114FEA102E4EEA8C
:100FE000016E10EB0E0041EB11214FEA104E4EEA5C
:100FF000014E10EB0E0041EB1141401841F1000190
:101000004FEAD00040EA41704FEAD10110EB800571
:101010004FEA810444EA907444EB01046D1944EBF7
:101020000404521BA3414FF0000348BF0A3200D50D
:1010300030BD401C41F1000130BD00002DE9F04100
:101040001F46044603260168072A01F4006004DBFA
:1010500008B116A505E016A503E008B115A500E046
:1010600015A521F010002060A069C01EA0610FB17D
:10107000401EA0612046AFF300804FB1D4E90121AA
:1010800038469047206A401C2062C01C206206E05F
:10109000206AFAE7D4E9012115F8010B9047761E82
:1010A000F8D22046AFF30080BDE8F0814E414E00FB
:1010B0006E616E00494E4600696E66002DE9F0478C
:1010C000814616468AB035487844D0E900238068C6
:1010D0000092CDE90130314878440C38D0E9022340
:1010E000006903924FF03702CDE9043041F69B309E
:1010F000014491FBF2F0A0F1800502FB10141B3CAF
:1011000002D56442012000E00020DFF890A0804674
:101110000027FA44AAF1C60A0DE0E00709D03246DA
:10112000684607EB47010AEB810100F035FB8DE8CB
:10113000070064107F1C002CEFD1184F7F44B43F90
:1011400017E0E80713D007EB04100DF1180A90E838
:101150000E00AAE80E00C068F04201D1981908906C
:10116000324606A903A800F017FB03AB07C36D10B6
:10117000641C002DE5D132466946B8F1000F03A882
:1011800002D000F0F5FA01E000F006FBC9E9000129
:10119000C9F808200AB0BDE8F0870000A40D0000DF
:1011A00000487047100000207546FFF7F9FFAE4673
:1011B00005006946534620F00700854618B020B563
:1011C000FFF72AF9BDE820404FF000064FF0000776
:1011D0004FF000084FF0000B21F00701AC46ACE8DF
:1011E000C009ACE8C009ACE8C009ACE8C0098D464C
:1011F00070470446AFF300802046FFF782F80000F6
:101200004FF0013C50F8042B51F8043B9A4221D195
:10121000A2EB0C03934313EACC1317D150F8042B21
:1012200051F8043B9A4215D1A2EB0C03934313EA05
:10123000CC130BD150F8042B51F8043B9A4209D13E
:10124000A2EB0C03934313EACC13DBD04FF0000066
:10125000704700BFD01A01BAB1FA81F101F018014C
:1012600022FA01F0CB40C1F12001DBB2C0B2C01ABA
:101270002CFA01F3D11A914311EAC311E6D1704758
:1012800001491820ABBEFEE72600020070475FEA66
:10129000400C08BF91F0000F4FEA8C234FEAC122A7
:1012A00043EA51514FEA1C5018BF00F5F0404FEA95
:1012B000300018BF41F000415FEA6C5C00F029800B
:1012C000BCF1FF3F08BF40F080407047130C06BFE1
:1012D00012044FF0100C4FF0000C130E04BF12025A
:1012E0000CF1080C130F04BF12010CF1040C930F46
:1012F00004BF92000CF1020CD30F04BF52000CF19A
:10130000010C11464FF00002A0F11F00A0EB0C00F1
:10131000704711F0004F08BF704731F000413FF4B3
:10132000D5AF0B0C06BF09044FF0100C4FF0000CAA
:101330000B0E04BF09020CF1080C0B0F04BF0901CE
:101340000CF1040C8B0F04BF89000CF1020CCB0FC5
:1013500004BF49000CF1010CCCF12003A0EB0C0000
:1013600022FA03F302FA0CF241EA030100F1010050
:10137000704720F07F4C80EA030023F07F47ACEBFE
:10138000070303F57C5300F0004003F1FF032DE950
:1013900080494FEA154B09B44FEA144325EA0B4E36
:1013A00024EA03480FF2042606EB132749083E7887
:1013B0005FEA320203FB0667C7F5000707FB06F684
:1013C0004FEA54374FEAD64606F1020607FB066C91
:1013D000CCF1005C4FEA1C472CEA074C07FB06F4F3
:1013E0000CFB06F504EB15464FEA961634BF0020B9
:1013F0004FF000404FEAD13706FB07FC4FEA1C4C88
:101400000CFB0BF7D21B03FB0CF761EB07010CFB8A
:101410000EF7B0EB074072EB17420CFB08F734BF36
:10142000A2EB0742B2EB074261EB17414FEA0C44D3
:101430004FEA910706FB07FC4FEA1C4C0CFB0BF72D
:10144000B0EBC74072EB573203FB0CF734BFA2EB93
:10145000C742B2EBC74261EB57310CFB0EF7B0EB62
:10146000C70072EB57720CFB08F734BFA2EBC70240
:10147000B2EBC70261EB5771039F4FEA816141EA0A
:10148000921104EBCC044FEAD1374FEA826206FB9B
:1014900007FC42EA90124FEA80604FEA1C4C0CFBBA
:1014A0000BF7D21B03FB0CF761EB07010CFB0EF7EC
:1014B000B0EB074072EB17420CFB08F734BFA2EB0E
:1014C0000742B2EB074261EB17414FEA8C554FEAF6
:1014D000910704EB9C2406FB07FC4FEA1C4C0CFB19
:1014E0000BF7B0EBC74072EB573203FB0CF734BF7E
:1014F000A2EBC742B2EBC74261EB57310CFB0EF7D0
:10150000B0EBC70072EB57720CFB08F734BFA2EBCD
:10151000C702B2EBC70261EB577115EB4C254FEADE
:10152000816141EA92114FEA82624FEAD13742EA81
:10153000901206FB07FC44F100044FEA80604FEA7A
:101540001C4C0CFB0BF7D21B03FB0CF761EB0701E8
:101550000CFB0EF7B0EB074072EB17420CFB08F7E1
:1015600034BFA2EB0742B2EB074261EB174115EB28
:101570001C154FEA813141EA92414FEA823242EA38
:1015800090424FEA80304FEA0C7644F1000448EA7A
:1015900003434EEA0B484FF0000EB2EB080C71EB20
:1015A000030724BF624639464EEB0E0E4FF0000B88
:1015B0000018524149414BEB0B0BB2EB080C71EB9D
:1015C00003077BF1000B24BF624639464EEB0E0E3B
:1015D0004FF0000B0018524149414BEB0B0BB2EBA3
:1015E000080C71EB03077BF1000B24BF6246394600
:1015F0004EEB0E0E51EA020718BF46F0010616EB3D
:101600000E7655F1000254F1000103D5BDE88901C1
:10161000BDE80088BDE88901BDE80048B61952411F
:1016200041EB0101A3F10103704780807F7E7D7C47
:101630007B7A7978777676757473727171706F6E64
:101640006E6D6C6C6B6A6A6968686766666564640F
:10165000636362616160605F5F5E5E5D5D5C5C5B99
:101660005B5A5A5959585857575656555555545408
:10167000535352525251515050504F4F4F4E4E4D66
:101680004D4D4C4C4C4B4B4B4A4A4A4949494848B2
:1016900048474747474646464545454444444443F2
:1016A00043434342424242414141002B26D477000A
:1016B00021D01CB54FEA370703B44FF010004FF0AC
:1016C00010014FF000000FBCBDE810400BF1010B02
:1016D000BBF1010F08BF5FEA170722BF12F1010239
:1016E00011F101014FF0004143F1000300F000400F
:1016F00043EA00007047F9D35708DAE746EA06469E
:1017000013F1400F4FEA16461FDD13F1200FDFBF24
:1017100016430A46002120335B42C8D0C3F120079C
:1017200046EA064602FA07F74FEA164646EA070671
:10173000C3F1200722FA03F201FA07F721FA03F1B5
:101740004FF0000342EA0702B1E746EA020646EA22
:1017500006464FEA164646EA0106BCBF46EA06467A
:10176000360C4FF000034FF000024FF000019EE7EF
:101770002DE9C048934630B491E8380007C831EAF3
:10178000400C48BF34EA430C03D5FFF7F2FDFFF7E6
:101790008CFFF0BCBDE800882DE9C048934630B40A
:1017A00091E8380007C810F0804F08BF13F0804F51
:1017B00003D100F005F8FFF778FFF0BCBDE8008822
:1017C00020F07F4780EA030023F07F4C07EB0C03F7
:1017D000A3F57C5300F00040A3F1FE0392F0000F4C
:1017E00000F0B38095F0000F00F077802DE90149FB
:1017F0004FEA11404FEA144621EA004800FB06FC7C
:1018000024EA064708FB06F607FB08F800FB07F783
:1018100018EB06484CEB164C4FEA124B18EB0748F6
:101820004FEA15464CEB174022EA0B4E0BFB06FC29
:1018300025EA06470EFB06F607FB0EFE0BFB07F735
:101840001EEB064E4CEB164C4FF000061EEB074EFF
:101850004CEB174B18EB0B0840F1000018EB0E0B8C
:1018600058EB000840F100008F1A4FF000013CBF18
:10187000C943661B14BFB5EB040C00213CBFC94330
:10188000F61B4FEA17444EEA8E0E27EA04454FEA4C
:101890001C4704FB07622CEA074C05FB07F70CFB0F
:1018A00005F604FB0CFC16EB074642EB174216EB61
:1018B0000C4642EB1C421BEB060658EB0202414170
:1018C00046EA9E0601D5BDE80189B619524141EBB1
:1018D0000101A3F10103BDE801894FEA14454FEA74
:1018E000114724EA054621EA074C05FB07F406FBED
:1018F00007F70CFB06F105FB0CFC11EB074144EB71
:1019000017444FEA124711EB0C4144EB1C4422EA06
:10191000074C05FB07F206FB07F70CFB06F605FB79
:101920000CFC16EB074642EB174216EB0C4642EB5B
:101930001C456A1854F1000148BF7047B61952415E
:1019400041EB0101A3F10103704795F0000F37D07F
:101950004FEA11424FEA144721EA024624EA074CB3
:1019600002FB07F106FB07F70CFB06F402FB0CFC7D
:1019700014EB074441EB17414FEA154714EB0C44B5
:1019800041EB1C4125EA074C02FB07F506FB07F774
:101990000CFB06F602FB0CFC16EB074645EB174565
:1019A00016EB0C4645EB1C42121951F1000148BFE1
:1019B0007047B619524141EB0101A3F10103704791
:1019C0004FEA14454FEA114724EA054621EA074C3D
:1019D00005FB07F106FB07F70CFB06F24FF00006CC
:1019E00005FB0CFC12EB074241EB174112EB0C42DA
:1019F00051EB1C4148BF7047921841EB0101A3F124
:101A00000103704703B401984100009850EAC120D7
:101A100018BF04204A0D18BF40F0010040F2FF72C9
:101A2000B2EB515F08BF40F00200012808BF05205B
:101A300002B0704710B500290AD00878002807D0F6
:101A400005487844FFF7DCFB002801D0002010BDDA
:101A50000248784410BD0000560400004E04000007
:101A60002DE9C04130B4DFF8A0C23CEA111418BF20
:101A70003CEA131400F0EC8081EA03051CEA11141F
:101A800044EAD57418BF1CEA131500F0C780A4EB14
:101A900005044FF0004545EAC12145EAC32341EA68
:101AA000505143EA525304F17F74994204F50034D3
:101AB0004FEAC0204FEAC22208BF904200F09C804B
:101AC0004FEA13650FF24016765D4FEA134506FBA9
:101AD00005F7C7F1807706FB07F74FEAD737A7FB73
:101AE00003687642C8F58038A7FB06CE38BFA8F158
:101AF000010807FB08E64FF0000EA6FB028CE6FB90
:101B000003CEDCF1000CCEF1004E38BFAEF1010E79
:101B1000A6FB0C584FF000074FF00005E6FB0E87C0
:101B2000A1FB08C6A0FB07CE16EB0E0645F100058B
:101B3000E1FB076515F1E04E7EBFA4F580345FEA56
:101B400046066D4116F1800745F100054FEA17275B
:101B50004FEA066647EA0567A6F1DE46B6F1805F02
:101B60004FEA15251FD9384624F0010C05EBC47146
:101B7000BCF1FE6F01EB0C1102D8F0BCBDE8008196
:101B800024425CBF01F5801E9EEAC47F02D4F0BCF3
:101B9000BDE80081244238D4F0BCA1F1C041BDE8C9
:101BA000004100F01AB94FEAD22242EA43524FEA0A
:101BB000D323A7FB02864FEAD02040EA415007FB1F
:101BC00003661EEA0E0F4FEAD12105FB026658BFDD
:101BD000A6EB0056B6EB00564FEA520E4EEAC37E15
:101BE00018EB0E0E56EB530EBDD518EB02085E41F6
:101BF0007F1C55F10005B6E74FF480154FF0000744
:101C00004FF000064FF00008ADE7F0BC4FF00000C9
:101C100001F1C04101F00041BDE8008111EA0C1F53
:101C20000CEA131500D00CE013EA0C1F00F025801D
:101C30004FF00000F0BC81EA030101F00041BDE873
:101C40000081F0BCBDE8004181EA030100F0C5B8A5
:101C5000F0BCBDE8004170B500F071F8097EFC3EB3
:101C600000F007B881EA03014FF0000001F00041E5
:101C7000704781EA030100F0B0B8F0BCBDE8004154
:101C80004FF0000021497047FFFDFBF9F7F5F4F232
:101C9000F0EEEDEBE9E8E6E4E3E1E0DEDDDBDAD807
:101CA000D7D5D4D3D1D0CFCDCCCBCAC8C7C6C5C465
:101CB000C2C1C0BFBEBDBCBBBAB9B8B7B6B5B4B37C
:101CC000B2B1B0AFAEADACABAAA9A8A8A7A6A5A467
:101CD000A3A3A2A1A09F9F9E9D9C9C9B9A9999982B
:101CE0009797969595949393929191908F8F8E8ECE
:101CF0008D8C8C8B8B8A898988888787868585845B
:101D000084838382828181800000FF070000F87F46
:101D100010F0004248BF4042B0FA80F310FA03F1DD
:101D20000AD0C3F11D0303F580634FEA415002EB73
:101D3000035202EBD12170474FF0000070470EF1C3
:101D4000020E2EF0030E5EF8046B364205D4012A13
:101D500043EB030515F5001F12D8012841EB010CD8
:101D60001CF5001F0CD80ED14FEAD17C15F5001FD1
:101D70000CEB4C0C0CF1020C08BF4CEBD37C04E0D8
:101D80004FF0080C01E04FEAD37C0CEB4C0526FA2F
:101D900005F606F00706B6F1040C06D20EEB860C2B
:101DA000BDE870404CF0010C6047DFE80CF0090B17
:101DB00002024FF000414FF00000A1F5002170BD7C
:101DC00019461046012851EB010418BFD4F5001440
:101DD00084BF002001F0004170BD0808A0F500118B
:101DE0004FEA310170474FF04070E1EE100A704742
:101DF000FEF781BF02400000000000A000000000CC
:101E000005400000000000C8000000000C40000079
:101E10000000409C00000000194000000020BCBEF3
:101E20000000000034400000BFC91B8E0000000409
:101E3000B5400000504BCFD06607E2CF0100000054
:101E40006C4100003E8251AADFEEA7340100000081
:101E5000D9420000DCB5A0E23A301F97FFFFFFFF38
:101E6000B4450000FD25A0C8E9A3C14FFFFFFFFF57
:101E7000FF3F00000000008000000000FF3F000066
:101E80000000008000000000B41E000000000020E0
:101E900070020000A80200001C00000043000000C7
:101EA000F8FFFFFF0C0000000E0000000F00000014
:041EB0002E00000000
:0400000500000327CD
:00000001FF
