:020000040000FA
:1000000060020020070300000F030000110300003E
:100010001303000015030000170300000000000098
:1000200000000000000000000000000019030000B4
:100030001B030000000000001D0300001F03000060
:100040002103000023030000250300002703000014
:10005000290300002B0300002D0300002F030000E4
:1000600031030000330300003503000037030000B4
:10007000390300003B0300003D0300003F03000084
:100080004103000043030000450300004703000054
:1000900049030000E30400004D0300004F0300008B
:1000A00051030000530300005503000057030000F4
:1000B000590300005B0300005D0300005F030000C4
:1000C0006103000063030000650300006703000094
:1000D000690300006B0300006D0300006F03000064
:1000E00071030000730300000000000075030000AE
:1000F00077030000790300007B0300007D0300000C
:100100007F030000810300008303000085030000DB
:1001100000000000000000008703000089030000C9
:100120008B0300008D0300008F030000910300008B
:10013000930300009503000097030000990300005B
:1001400000000000000000000000000000000000AF
:100150009B0300009D0300009F030000A10300001B
:10016000000000000000000000000000000000008F
:10017000000000000000000000000000000000007F
:10018000000000000000000000000000000000006F
:10019000000000000000000000000000000000005F
:1001A000000000000000000000000000000000004F
:1001B000A3030000A5030000A7030000A90300009B
:1001C000AB030000AD030000AF030000B10300006B
:1001D000B3030000B5030000B7030000B90300003B
:1001E000BB030000BD030000BF03000000000000CF
:1001F00000000000C1030000C3030000C5030000AD
:10020000C7030000C9030000000000000000000058
:10021000CB030000CD030000CF030000D10300009A
:10022000D3030000D5030000D7030000D90300006A
:10023000DB030000DD030000DF030000E10300003A
:10024000E3030000E5030000E7030000E90300000A
:10025000EB030000ED030000EF030000F1030000DA
:10026000F3030000F5030000F703000000F002F8BC
:1002700000F02EF80AA090E8000C82448344AAF112
:100280000107DA4501D100F023F8AFF2090EBAE810
:100290000F0013F0010F18BFFB1A43F001031847BA
:1002A0003003000040030000002300240025002646
:1002B000103A28BF78C1FBD8520728BF30C148BFC9
:1002C0000B6070471FB500F07EF91FBD10B510BD63
:1002D00000F043F91146FFF7F5FF00F006F900F0D2
:1002E00061F903B4FFF7F2FF03BC00F065F9000009
:1002F00072B6704762B670474FF0E00080F3118825
:10030000704730BF70473F4880473F480047FEE78F
:10031000FEE7FEE7FEE7FEE7FEE7FEE7FEE7FEE7B5
:10032000FEE7FEE7FEE7FEE7FEE7FEE7FEE7FEE7A5
:10033000FEE7FEE7FEE7FEE7FEE7FEE7FEE7FEE795
:10034000FEE7FEE7FEE7FEE7FEE7FEE7FEE7FEE785
:10035000FEE7FEE7FEE7FEE7FEE7FEE7FEE7FEE775
:10036000FEE7FEE7FEE7FEE7FEE7FEE7FEE7FEE765
:10037000FEE7FEE7FEE7FEE7FEE7FEE7FEE7FEE755
:10038000FEE7FEE7FEE7FEE7FEE7FEE7FEE7FEE745
:10039000FEE7FEE7FEE7FEE7FEE7FEE7FEE7FEE735
:1003A000FEE7FEE7FEE7FEE7FEE7FEE7FEE7FEE725
:1003B000FEE7FEE7FEE7FEE7FEE7FEE7FEE7FEE715
:1003C000FEE7FEE7FEE7FEE7FEE7FEE7FEE7FEE705
:1003D000FEE7FEE7FEE7FEE7FEE7FEE7FEE7FEE7F5
:1003E000FEE7FEE7FEE7FEE7FEE7FEE7FEE7FEE7E5
:1003F000FEE7FEE7FEE7FEE704480549034A054B32
:1004000070470000190400006D0200006000002029
:1004100060020020600000204548006840F4700041
:1004200043490860704770B504464248006840F090
:100430000200404908604048C06820F001003E4981
:10044000C860084600680860022048600846846268
:1004500000208863FFF74CFF15200221002808DAEE
:100460004A07150E324A703A00F00F031B1FD5548D
:1004700003E04A07130E314A135400BF152001212F
:10048000814042094FF0E02303EB8202C2F80011E1
:1004900000BF2948406A40F00100274948620846E9
:1004A000806940F0010088610846C06840F00100A2
:1004B000C860FFF71FFF70BD1E48001D006840F0B8
:1004C00020001C49091D08601D48006840F002001A
:1004D0001B4908601B48006840F002001949086089
:1004E00070470120144948627047FFF7E5FF16483E
:1004F000006880F002001549C1F8FC031448FFF7BA
:1005000092FF00BF0C48C06910F0010FFAD00E48EE
:10051000006880F002000D49C1F8FC030648C0687D
:1005200020F001000449C86001E0FFF7EAFEFCE7A3
:1005300088ED00E004E60F400010034000E400E016
:100540001C55024000540240FC530240005002403F
:1005500000B4C404704770477047754600F028F82F
:10056000AE4605006946534620F00700854618B0A0
:1005700020B5FFF741FFBDE820404FF000064FF0E7
:1005800000074FF000084FF0000B21F00701AC46C8
:10059000ACE8C009ACE8C009ACE8C009ACE8C009E7
:1005A0008D4670470446AFF300802046FFF799FE62
:1005B000004870470000002001491820ABBEFEE74C
:1005C0002600020070474FF04070E1EE100A7047BD
:1005D000E00500000000002060020000A80200000A
:0400000500000307ED
:00000001FF
