:020000040000FA
:1000000060020020F1020000F9020000FB02000083
:10001000FD020000FF0200000103000000000000DC
:1000200000000000000000000000000003030000CA
:1000300005030000000000000703000009030000A2
:100040000B0300000D0300000F030000110300006C
:10005000130300001503000017030000190300003C
:100060001B0300001D0300001F030000210300000C
:1000700023030000250300002703000029030000DC
:100080002B0300002D0300002F03000031030000AC
:10009000330300003503000037030000390300007C
:1000A0003B0300003D0300003F030000410300004C
:1000B000430300004503000047030000490300001C
:1000C0004B0300004D0300004F03000051030000EC
:1000D00053030000550300005703000059030000BC
:1000E0005B0300005D030000000000005F030000F0
:1000F0006103000063030000650300006703000064
:10010000690300006B0300006D0300006F03000033
:1001100000000000000000007103000073030000F5
:100120007503000077030000790300007B030000E3
:100130007D0300007F0300008103000083030000B3
:1001400000000000000000000000000000000000AF
:100150008503000087030000890300008B03000073
:10016000000000000000000000000000000000008F
:10017000000000000000000000000000000000007F
:10018000000000000000000000000000000000006F
:10019000000000000000000000000000000000005F
:1001A000000000000000000000000000000000004F
:1001B0008D0300008F0300009103000093030000F3
:1001C0009503000097030000990300009B030000C3
:1001D0009D0300009F030000A1030000A303000093
:1001E000A5030000A7030000A90300000000000011
:1001F00000000000AB030000AD030000AF030000EF
:10020000B1030000B3030000000000000000000084
:10021000B5030000B7030000B9030000BB030000F2
:10022000BD030000BF030000C1030000C3030000C2
:10023000C5030000C7030000C9030000CB03000092
:10024000CD030000CF030000D1030000D303000062
:10025000D5030000D7030000D9030000DB03000032
:10026000DD030000DF030000E103000000F002F8FE
:1002700000F02EF80AA090E8000C82448344AAF112
:100280000107DA4501D100F023F8AFF2090EBAE810
:100290000F0013F0010F18BFFB1A43F001031847BA
:1002A00064040000740400000023002400250026DC
:1002B000103A28BF78C1FBD8520728BF30C148BFC9
:1002C0000B6070471FB500F018FA1FBD10B510BDC8
:1002D00000F0DDF91146FFF7F5FF00F0ADF900F091
:1002E000FBF903B4FFF7F2FF03BC00F0FFF90000D5
:1002F0003F4880473F480047FEE7FEE7FEE7FEE74E
:10030000FEE7FEE7FEE7FEE7FEE7FEE7FEE7FEE7C5
:10031000FEE7FEE7FEE7FEE7FEE7FEE7FEE7FEE7B5
:10032000FEE7FEE7FEE7FEE7FEE7FEE7FEE7FEE7A5
:10033000FEE7FEE7FEE7FEE7FEE7FEE7FEE7FEE795
:10034000FEE7FEE7FEE7FEE7FEE7FEE7FEE7FEE785
:10035000FEE7FEE7FEE7FEE7FEE7FEE7FEE7FEE775
:10036000FEE7FEE7FEE7FEE7FEE7FEE7FEE7FEE765
:10037000FEE7FEE7FEE7FEE7FEE7FEE7FEE7FEE755
:10038000FEE7FEE7FEE7FEE7FEE7FEE7FEE7FEE745
:10039000FEE7FEE7FEE7FEE7FEE7FEE7FEE7FEE735
:1003A000FEE7FEE7FEE7FEE7FEE7FEE7FEE7FEE725
:1003B000FEE7FEE7FEE7FEE7FEE7FEE7FEE7FEE715
:1003C000FEE7FEE7FEE7FEE7FEE7FEE7FEE7FEE705
:1003D000FEE7FEE7FEE7FEE7FEE7FEE7FEE7FEE7F5
:1003E000FEE7000004480549034A054B704700003A
:1003F000050400006D020000600000206002002083
:10040000600000209348006840F470009149086043
:10041000704708B59048006840F001008E490860B8
:100420000846006800908C481030006840F00100D9
:1004300089491031086008460068009087480068C4
:1004400040F00300854908608448FC38006840F0AB
:1004500003008249FC39086080481030006840F091
:1004600011007E49103108607D48006B40F2013177
:1004700088437B49086300207A4908607848006B0C
:1004800020F0200076490863682048620B208862CB
:100490000846C06A20F00200C8620846C06A20F020
:1004A0000800C8620846C06A40F01000C8620846EA
:1004B000C06A40F04000C8620846006B40F201315B
:1004C00008436749086308BD08B56348006840F001
:1004D0000800614908600846006800905E481030D6
:1004E000006840F004005C4910310860084600686C
:1004F00000905D485D490860081D006840F0FF00FD
:10050000091D08605948001F006840F0C0005749A5
:10051000091F08605648006840F0C0005449086050
:1005200052480C30006840F0885050490C31086047
:100530005048006B40F2013188434E490863002067
:100540004D4908604B48006B20F020004949086382
:10055000682048620B2088620846C06A20F00200CA
:10056000C8620846C06A20F00800C8620846C06A2F
:1005700040F01000C8620846C06A40F04000C862FF
:100580000846006B40F2013108433A49086308BD50
:1005900000BF3848806910F0100FFAD13548006864
:1005A000C0B2704700BF2E49896911F0200FFAD1FF
:1005B0002B490860704730B503460C460025FFF70D
:1005C000E7FF0246A54229DA1A705B1C6D1C412A1E
:1005D00001DB012000E000205A2A01DC012100E0BB
:1005E0000021084205D002F12001C8B2FFF7DAFF6E
:1005F00014E0612A01DB012000E000207A2A01DCFE
:10060000012100E00021084205D0A2F12001C8B27A
:10061000FFF7C8FF02E01046FFF7C4FF0020187084
:1006200030BD00B5024603E01078FFF7BBFF521C57
:1006300010780028F8D100BD85B0FFF7EAFEFFF77B
:1006400043FF0EA0FFF7EDFF03E010216846FFF720
:10065000B2FFFAE788ED00E008E60F401C450040D5
:1006600000C00040C8CF00404B434F4C20750040B5
:100670002074004000E00040C8EF0040456E746503
:1006800072546578743A0000704770477047754639
:1006900000F028F8AE4605006946534620F00700F2
:1006A000854618B020B5FFF79DFEBDE820404FF00D
:1006B00000064FF000074FF000084FF0000B21F04C
:1006C0000701AC46ACE8C009ACE8C009ACE8C00919
:1006D000ACE8C0098D4670470446AFF30080204661
:1006E000FFF7FFFD00487047000000200149182077
:1006F000ABBEFEE72600020070474FF04070E1EE0F
:10070000100A70471407000000000020600200007B
:04071000A80200003B
:04000005000002F104
:00000001FF
